:020000040800F2
:1000000000000824A11B0008651A0008671A0008F0
:10001000691A00086B1A00086D1A00080000000039
:1000200000000000000000000000000091EA00084D
:100030006F1A00080000000021EB0008C9E2000868
:10004000F11B0008F11B0008F11B0008F11B000860
:10005000F11B0008F11B0008F11B0008F11B000850
:10006000F11B0008F11B0008F11B0008F11B000840
:10007000F11B0008F11B0008F11B0008F11B000830
:10008000F11B0008F11B0008711A0008F11B0008A1
:10009000F11B0008F11B0008F11B0008F11B000810
:1000A000F11B0008F11B0008F11B0008F11B000800
:1000B000F11B0008F11B00088D1A0008F11B000855
:1000C000F11B0008F11B0008F11B0008F11B0008E0
:1000D000F11B0008F11B0008F11B0008F11B0008D0
:1000E000F11B0008F11B000800000000F11B0008D4
:1000F000F11B0008F11B0008F11B0008F11B0008B0
:10010000F11B0008F11B0008F11B0008F11B00089F
:10011000F11B0008F11B0008991A0008F11B0008E8
:10012000F11B0008F11B0008F11B0008F11B00087F
:10013000F11B0008F11B0008F11B0008F11B00086F
:10014000F11B0008F11B0008000000000000000087
:10015000F11B0008F11B0008F11B0008F11B00084F
:10016000F11B0008F11B0008F11B0008F11B00083F
:10017000F11B0008F11B0008F11B00080000000043
:10018000F11B0008F11B0008F11B0008F11B00081F
:10019000F11B0008F11B0008F11B0008F11B00080F
:1001A000A51A0008F11B0008B11A0008F11B00088D
:1001B000F11B0008F11B0008F11B0008F11B0008EF
:1001C000F11B0008F11B0008F11B0008F11B0008DF
:1001D000F11B0008F11B0008F11B0008F11B0008CF
:1001E000F11B0008F11B0008F11B0008F11B0008BF
:1001F000F11B0008F11B0008F11B0008F11B0008AF
:10020000F11B0008F11B0008F11B0008F11B00089E
:10021000F11B0008F11B0008F11B0008F11B00088E
:10022000F11B0008BD1A0008C91A0008E51A0008E9
:10023000F11B0008F11B0008F11B0008F11B00086E
:10024000F11B0008F11B0008F11B0008F11B00085E
:10025000F11B0008F11B0008F11B0008F11B00084E
:10026000F11B0008F11B0008F11B0008F11B00083E
:10027000F11B0008F11B0008F11B0008F11B00082E
:10028000F11B0008F11B0008F11B00080000000032
:08029000F11B0008F11B00083E
:1002A00010B5054C237833B9044B13B10448AFF3B0
:1002B00000800123237010BD4003002400000000D3
:1002C000E464020808B5034B1BB103490348AFF3CC
:1002D000008008BD0000000044030024E46402081C
:1002E00001F0FF01102A2BDB10F0070F08D010F8E7
:1002F000013B013A8B422DD010F0070F42B3F6D1EB
:10030000F0B441EA012141EA014122F007047FF003
:1003100000070023F0E80256083C85EA010586EA5A
:10032000010685FA47F5A3FA87F586FA47F6A5FA96
:1003300087F68EB9EED1F0BC01F0FF0102F00702A2
:1003400032B110F8013B013A83EA010313B1F8D14D
:100350000020704701387047002D06BF354603382E
:10036000073815F0010F07D1013015F4807F02BF67
:10037000013015F4C03F0130F0BC0138704700BFB8
:1003800081F0004102E000BF83F0004330B54FEA46
:1003900041044FEA430594EA050F08BF90EA020FB3
:1003A0001FBF54EA000C55EA020C7FEA645C7FEA46
:1003B000655C00F0E2804FEA5454D4EB5555B8BF69
:1003C0006D420CDD2C4480EA020281EA030382EADA
:1003D000000083EA010180EA020281EA0303362D6C
:1003E00088BF30BD11F0004F4FEA01314FF4801C3F
:1003F0004CEA113102D0404261EB410113F0004F51
:100400004FEA03334CEA133302D0524263EB430307
:1004100094EA050F00F0A780A4F10104D5F1200EA5
:100420000DDB02FA0EFC22FA05F2801841F1000100
:1004300003FA0EF2801843FA05F359410EE0A5F1D4
:1004400020050EF1200E012A03FA0EFC28BF4CF005
:10045000020C43FA05F3C01851EBE37101F00045BB
:1004600007D54FF0000EDCF1000C7EEB00006EEBC8
:100470000101B1F5801F1BD3B1F5001F0CD3490852
:100480005FEA30004FEA3C0C04F101044FEA4452A9
:1004900012F5800F80F09A80BCF1004F08BF5FEA30
:1004A000500C50F1000041EB045141EA050130BD10
:1004B0005FEA4C0C404141EB0101013C28BFB1F522
:1004C000801FE9D291F0000F04BF01460020B1FA6D
:1004D00081F308BF2033A3F10B03B3F120020CDA40
:1004E0000C3208DD02F1140CC2F10C0201FA0CF01E
:1004F00021FA02F10CE002F11402D8BFC2F1200C83
:1005000001FA02F120FA0CFCDCBF41EA0C01904038
:10051000E41AA2BF01EB0451294330BD6FEA040481
:100520001F3C1CDA0C340EDC04F11404C4F120026C
:1005300020FA04F001FA02F340EA030021FA04F37E
:1005400045EA030130BDC4F10C04C4F1200220FAD5
:1005500002F001FA04F340EA0300294630BD21FA13
:1005600004F0294630BD94F0000F83F4801306BFD9
:1005700081F480110134013D4EE77FEA645C18BFCD
:100580007FEA655C29D094EA050F08BF90EA020F64
:1005900005D054EA000C04BF1946104630BD91EA5C
:1005A000030F1EBF0021002030BD5FEA545C05D15F
:1005B0004000494128BF41F0004130BD14F580049E
:1005C0003CBF01F5801130BD01F0004545F0FE4112
:1005D00041F470014FF0000030BD7FEA645C1ABF47
:1005E000194610467FEA655C1CBF0B46024650EA7E
:1005F000013406BF52EA033591EA030F41F40021AA
:1006000030BD00BF90F0000F04BF0021704730B52F
:100610004FF4806404F132044FF000054FF0000104
:1006200050E700BF90F0000F04BF0021704730B5C5
:100630004FF4806404F1320410F0004548BF40429A
:100640004FF000013EE700BF42004FEAE2014FEAEF
:1006500031014FEA02701FBF12F07F4393F07F4FCA
:1006600081F06051704732F07F4208BF704793F0CD
:100670007F4F04BF41F40021704730B54FF46074E0
:1006800001F0004521F000411CE700BF50EA0102E3
:1006900008BF704730B54FF000050AE050EA01028C
:1006A00008BF704730B511F0004502D5404261EBFC
:1006B00041014FF4806404F132045FEA915C3FF43D
:1006C000D8AE4FF003025FEADC0C18BF03325FEADA
:1006D000DC0C18BF033202EBDC02C2F1200300FA8B
:1006E00003FC20FA02F001FA03FE40EA0E0021FAB0
:1006F00002F11444BDE600BF014900200FF07CBBAD
:100700009D24000870B5194D194C1A4E284607F063
:10071000CBFD0A21284607F035F9284607F0C0F935
:10072000284607F074FE204607F0BEFD0A21204649
:1007300007F028F9204607F0B3F9204607F067FED6
:1007400000224FF48051304609F088F84FF4FA70D7
:100750000DF03BFE304601224FF4805109F07EF847
:100760004FF4FA700DF031FED0E700BF48070024C7
:10077000AC0700240020025870B59CB04C22002128
:1007800009A825F019F92022002101A825F014F963
:1007900004200AF0E7FE00230093254BDA6A22F0DA
:1007A0000102DA62DB6A03F001030093214B9A69CC
:1007B00042F440429A619A6902F440420092009ADF
:1007C0009A699204FCD54FF48033032601250C224C
:1007D000402409A8CDE909630223CDE9123314931B
:1007E000CDE91523CDE91753CDE919230023CDE930
:1007F0000C541B930BF0B6F908B172B6FEE73F2319
:100800002946CDE901364FF48063CDE9030001A804
:10081000CDE90544CDE907340BF040FD014608B1B0
:1008200072B6FEE74FF480220BF048FC1CB070BD9E
:10083000000400580048025800B5B3B0A4220021BB
:1008400009A825F0B9F84FF4002200236846CDE945
:10085000002302230C22CDE90433CDE902320693B2
:10086000C0222023CDE907230BF09EFF08B172B60A
:10087000FEE733B05DF804FB2DE9F047BCB0102271
:10088000002101242FA8042525F096F808F058F837
:100890004FF01041BD4B2FA8ADF8BC403294CDE9CC
:1008A000301308F06BF81A232FA88DF8BD408DF88F
:1008B000C43008F063F802232FA88DF8CA408DF8E1
:1008C000BD304FF05043309318238DF8C43008F0FA
:1008D00055F803232FA88DF8BD304FF010533093F7
:1008E00012238DF8C43000238DF8C83008F046F884
:1008F0004FF080532FA88DF8BD50309311238DF801
:10090000C43008F03BF805232FA88DF8C8408DF8B7
:10091000BD309F4B30930E238DF8C43008F02EF875
:10092000284608F01BF89B4B5A6912F4003211D18B
:10093000BFF34F8FBFF36F8FC3F85022BFF34F8FBA
:10094000BFF36F8F5A6942F400325A61BFF34F8F81
:10095000BFF36F8F8F4A536913F4803323D1C2F8EA
:100960008430BFF34F8FD2F8803043F6E074C3F386
:10097000C900C3F34E335B0103EA0406014646EAAD
:1009800081750139C2F86052F9D2203B13F1200F72
:10099000F2D1BFF34F8F536943F480335361BFF3F8
:1009A0004F8FBFF36F8F4FF6FF737B4D2C6814F49E
:1009B000004400F0E483013BF8D272B6FEE772B661
:1009C000FEE77648764A83610462C0E90027C0E901
:1009D0000253C0E904530AF0E5FE08B172B6FEE71F
:1009E00040F203132FA98DF8BE40ADF8BC3006F0DD
:1009F000FBFA08B172B6FEE706F0A2FA034608B1A8
:100A000072B6FEE767484FF44032DFF8A4C1C0E990
:100A10000253C0E900C208F03EF8044608B172B6BD
:100A2000FEE702464146604808F018FF142006F031
:100A30007FFF2A4641465C4808F010FF0A2006F076
:100A400077FF2422214619A824F0B6FF1822214658
:100A500013A824F0B1FF342221462FA824F0ACFFC4
:100A600021462C2222A824F0A7FF504E4FF0A0438D
:100A700010A930461295C6E900347723C6E90295DD
:100A8000CDE9103708F054F908B172B6FEE7CDE9A8
:100A90001950CDE91B00CDE91D00CDE91F002190C3
:100AA00019A9304608F0B0FB08B172B6FEE7212361
:100AB0001C250F2713A9CDE913531923CDE91700DE
:100AC0003046CDE9157308F062FB08B172B6FEE757
:100AD0000421364808F04AFB08B172B6FEE742F23C
:100AE0001071324808F019FD014608B172B6FEE7F0
:100AF0002E4808F0BAF808B172B6FEE74FF400735A
:100B00004FF480794FF4806A4FF480524FF4804163
:100B10004FF400304FF400244FF00208CDE92F933A
:100B20004FF40063CDF8EC80CDE931A34FF40053CE
:100B3000CDE933234FF48033CDE935134FF48023CF
:100B40002FA9CDE937034FF080731848CDE9394319
:100B500008F0D8FA08B172B6FEE705234FF4C8775B
:100B6000012622A9229029902C96CDE92337102323
:100B7000CDE925308023CDE92700CDE92A300B4887
:100B800008F04EFA0146A8B172B6FEE71B0000035A
:100B90000000041000ED00E0004402581804002496
:100BA0000050005258060024001802583C06002449
:100BB00000100052AD4808F022FA044608B172B69F
:100BC000FEE73422014622A8A94D24F0F5FEDFF805
:100BD000F0C24FF000434FF4C97EC5F8208028468C
:100BE000AC8685F83640C5E900C34FF08043C5E9BF
:100BF00002344FF4F173C5E90648C5E909E340F250
:100C0000931840F2E313C5E90444C5E90B830AF0E5
:100C100091F9024608B172B6FEE7FF2124904FF425
:100C2000F073ADF8B8208DF8BA202D93CDE92710D8
:100C3000CDE9220707214FF4C060CDE929014FF02B
:100C400050412846CDE92B1722A9CDE925360AF0D7
:100C500026FA044608B172B6FEE72A68834893690B
:100C600023F00103936108F035FB8249824B8348EE
:100C7000CB60834B0C804B60824B8B6005F058FF40
:100C8000324621467D4805F0C3FB28231522214624
:100C90007648009408F051FB2FA974483994CDE9A7
:100CA0002F44CDE93144CDE93344CDE93544CDE994
:100CB000374408F027FA22464FF4487128460AF0D4
:100CC0001BFA2A6870489369848043F0010393619A
:100CD0006E4B06620360C0E9054407F07BFE08B175
:100CE00072B6FEE76A486B4B036009F011FB08B16E
:100CF00072B6FEE7684C00211C222FA824F05CFE8F
:100D000001260023654904272046A3822761A661A6
:100D10002377636384F83830E663C4E90013C4E9D9
:100D20000233C4E90933C4E90B3307F025FC08B1E9
:100D300072B6FEE74FF0060940F2FF7834902FA913
:100D40008DF8D5002F96CDE930902046CDE9328739
:100D500006F0E8FF054608B172B6FEE7504C0146C2
:100D60001C222FA824F028FE4E4B2046A582A66107
:100D70002577656384F83850E663C4E90035C4E933
:100D80000357C4E90955C4E90B5507F0F5FB08B151
:100D900072B6FEE7444B2FA98DF8D500CDE9310896
:100DA000CDE933702046CDE92F3906F0BBFF05466B
:100DB00008B172B6FEE73D4C014624901C22CDE9F5
:100DC00022002FA824F0F8FD394B20462761A58288
:100DD000A6612577656384F83850E663C4E9003579
:100DE000C4E90255C4E90955C4E90B5507F0C4FB31
:100DF00008B172B6FEE7229022A9204607F0D6FC81
:100E000008B172B6FEE72B4B2FA98DF8D500CDE9BE
:100E10003108CDE933702046CDE92F3906F082FF45
:100E2000044608B172B6FEE7014624901022224D16
:100E3000CDE922002FA824F0BFFD204B2846AC604E
:100E4000AC61C5E900344FF6FF73C5E903340CF01B
:100E50007FFF08B172B6FEE7229022A924902846AF
:100E60000DF04CF970B372B6FEE700BF3C060024EB
:100E7000640400245C030024116F00086C03002448
:100E80009D210008D5210008C0060024004C02580E
:100E9000E4050024003000524807002400210240ED
:100EA000E406002400600258000084CBAC07002454
:100EB0000020024002003004CC030024000800405F
:100EC00000100050CDE92F06CDE931003A462FA998
:100ED00028460CF0A7FF08B172B6FEE700F08AFEC4
:100EE00000F087FE0DF0FEF9B74A0021B7480DF07B
:100EF00025FAB74BB74A00211860B7480DF01EFA23
:100F0000B64BB74A00211860B6480DF017FAB64B39
:100F100018600DF0F9F9FEE7142200212FA8012531
:100F200024F04AFDD4F8E030002241F2083143F4C5
:100F30008073AE484FF488180026C4F8E0300327C9
:100F4000D4F8E0304FF0020A4FF4807903F4807354
:100F50000593059BD4F8E03043F00203C4F8E03079
:100F6000D4F8E03003F002030693069BD4F8E03097
:100F700043F48063C4F8E030D4F8E03003F48063D5
:100F80000793079BD4F8E03043F04003C4F8E03007
:100F9000D4F8E03003F040030893089BD4F8E03025
:100FA00043F01003C4F8E030D4F8E03003F010034D
:100FB0000993099BD4F8E03043F08003C4F8E03093
:100FC000D4F8E03003F080030A930A9BD4F8E030B1
:100FD00043F00403C4F8E030D4F8E03003F0040335
:100FE0000B930B9BD4F8E03043F40073C4F8E0306B
:100FF000D4F8E03003F400730C930C9BD4F8E03089
:1010000043F00803C4F8E030D4F8E03003F00803FC
:101010000D930D9BD4F8E03043F00103C4F8E030A9
:10102000D4F8E03003F001030E930E9BD4F8E030C7
:1010300043F02003C4F8E030D4F8E03003F020039C
:101040000F930F9B08F00AFC01224FF4704168488F
:1010500008F004FC00220821664808F0FFFB00228B
:101060004FF48071644808F0F9FB7C232FA9634892
:101070003195CDE92F3808F067FA41F208332FA9EE
:101080005A48CDE92F35CDE9316708F05DFA4FF4C4
:1010900000532FA95A48CDF8C4A0CDE92F3808F045
:1010A00053FA2FA957484FF008083396CDE92F9AE5
:1010B000CDE9316608F048FA4FF470432FA94C4847
:1010C000CDE92F35CDE9315608F03EFA2FA9494830
:1010D000CDE92F85CDE9315708F036FA2FA94648DA
:1010E000CDE92F95CDE9316708F02EFAD4F8D43048
:1010F000324605212B437A204FF00409C4F8D4303E
:10110000D4F8D43040242B400493049B07F0C6FB52
:101110007A2007F0F5FB3C4A3C482FA9136823F0DE
:10112000010313604FF40062394BC661866285602B
:10113000CDF8BCA0C0E900352023C0E903934FF4EB
:10114000C073C0E905434FF48053C0E90823072367
:10115000CDE934AACDE93039CDE932370CF0BEFB08
:10116000064600287FF42BAC06F0F8F8304606F06F
:1011700043F9034600283FF424AC72B6FEE706F0BC
:1011800097FBFFF7F9FAFFF757FBD5F8E030204659
:1011900043F00073C5F8E030D5F8E03003F0007399
:1011A0000393039B08F068FB2146204608F072FB7E
:1011B000184C4FF6FF73226812043FF5ADAE013BA9
:1011C000F9D272B6FEE700BFB0650208031C000842
:1011D000940300248C650208413D0008900300241C
:1011E00068650208050700088C03002400240258E3
:1011F0000020025800180258001402580028025813
:1012000000080258000002580040005298030024D1
:1012100040410052004402580268034B9A4201D1F7
:1012200006F074BB704700BF0010004072B6FEE7C6
:101230000A4B82B00F216FF00100D3F8F42042F086
:101240000202C3F8F4200022D3F8F43003F00203C2
:101250000193019B02B007F021BB00BF004402587C
:101260007FB50368384A934234D1384A1368013352
:10127000012B13600CD1364BD3F8D82042F020025A
:10128000C3F8D820D3F8D83003F020030193019B92
:101290002F4B4FF08071D3F8E020084642F0010256
:1012A000C3F8E020D3F8E03003F001030293029B7F
:1012B00006F056FB4FF00071084606F051FB002285
:1012C0000521122007F0EAFA122007B05DF804EBBE
:1012D00007F016BB1F4A934222D11C4A1368013300
:1012E000012B13600CD11A4BD3F8D82042F0200206
:1012F000C3F8D820D3F8D83003F020030393039B1E
:10130000134B4FF08071D3F8E02042F00102C3F894
:10131000E020D3F8E03003F001030493049BCBE713
:101320000D4A93420CD10A4BD3F8E02042F0807270
:10133000C3F8E020D3F8E03003F080730593059BF9
:1013400007B05DF804FB00BF00200240180800242D
:10135000004402580021024000600258026882B036
:10136000094B9A420DD1A3F50063D3F8E02042F473
:101370000022C3F8E020D3F8E03003F40023019307
:10138000019B02B0704700BF004C02580F4B07B5DD
:1013900002689A4217D10E4B07215A20D3F8D42065
:1013A00042F01002C3F8D4200022D3F8D43003F066
:1013B00010030193019B07F071FA5A2003B05DF806
:1013C00004EB07F09DBA03B05DF804FB0010005277
:1013D0000044025810B5BAB004461422002103A8F4
:1013E00024F0EAFAC822002108A824F0E5FA2368CC
:1013F000B3F1A04F38D14FF08062002308A8CDE9A7
:1014000008230BF0D1F908B1FFF710FF174B0024A8
:1014100003A91748D3F8E42042F01002C3F8E420EF
:10142000D3F8E42002F010020192019AD3F8E020F0
:1014300042F40072C3F8E0200422D3F8E03003F451
:1014400000730293029B0223CDE903230D23CDE910
:101450000544079308F078F87B202246072107F01F
:101460001DFA7B2007F04CFA3AB010BD0044025838
:101470000024025837B53C4B054602689A4270D1A9
:101480003A4B02213A4C4FF0007ED3F8D420DFF8DB
:10149000ECC0204642F02002C3F8D4208022D3F8CA
:1014A000D43003F020030193019B1123C4E900C34E
:1014B0000023C4E90232C4E9073220222361C4E9CF
:1014C0000513C4E909E24FF4A0414FF40032C4E926
:1014D0000D33C4E90B1209F07AFE08B1FFF7A6FE3E
:1014E00000222348114609F000FF08B1FFF79EFED5
:1014F0002C6313231F4A082125644FF4A0401E4C7F
:10150000C4E900230023C022C4E90232202223625E
:10151000C4E906124FF00071C4E909124FF42032F9
:10152000C4E90B022046C4E90433C4E90D3309F0D1
:101530004EFE08B1FFF77AFE00220F48114609F06F
:10154000D4FE08B1FFF772FE6C63002205217920FA
:10155000256407F0A3F9792003B0BDE8304007F017
:10156000CFB903B030BD00BF003000520044025874
:1015700078050024C00100520C050024000200522E
:1015800010B5B4B00446C822002102A824F014FA11
:101590002268184B9A422BD14FF0005200230521AC
:1015A00002A8CDE9022310230122CDE90C23022356
:1015B000CDE90E334FF44063CDE910130BF0F4F88E
:1015C00008B1FFF733FE0C4B58200721D3F8E42075
:1015D00042F00802C3F8E4200022D3F8E43003F01C
:1015E00008030193019B07F059F9582007F088F987
:1015F00034B010BD0010005000440258F0B5BFB028
:1016000004461422002107A824F0D6F9C82200219C
:101610000CA824F0D1F92268534B9A4240F0A180E3
:101620004FF0007200230CA8CDE90C230BF0BCF89E
:1016300008B1FFF7FBFD4D4B022500240926D3F826
:10164000D42007A94A480A2742F48042C3F8D4208C
:10165000D3F8D42002F480420192019AD3F8E0201A
:1016600042F04002C3F8E020D3F8E02002F040024C
:101670000292029AD3F8E02042F02002C3F8E02060
:10168000D3F8E02002F020020392039AD3F8E0207E
:1016900042F08002C3F8E020D3F8E02002F080029C
:1016A0000492049AD3F8E02042F00202C3F8E0204A
:1016B000D3F8E02002F002020592059AD3F8E02068
:1016C00042F00802C3F8E020D3F8E03003F008034A
:1016D0000693069B4FF48443CDE90735CDE90944D1
:1016E0000B9607F031FF402307A921480B97CDE95E
:1016F0000735CDE9094407F027FFC02307A91D4896
:101700000B96CDE90735CDE9094407F01DFF4FF4ED
:10171000007307A917480B97CDE90735CDE90944B0
:1017200007F012FF0C2307A913480B96CDE90735E4
:10173000CDE9094407F008FF042307A90F480B96D9
:10174000CDE90735CDE9094407F0FEFE4FF400630B
:1017500007A90B480B96CDE90735CDE9094407F0F9
:10176000F3FE3FB0F0BD00BF0050005200440258ED
:101770000018025800140258001C025800040258B5
:10178000000C025810B588B004461422002103A8AA
:1017900024F012F92268184B9A422AD1174B03A958
:1017A0001748D3F8E82042F00402C3F8E820D3F841
:1017B000E82002F004020192019AD3F8E02042F0FE
:1017C0000802C3F8E0204FF40052D3F8E03003F0F1
:1017D00008030293029B0223CDE90323079307F03A
:1017E000B3FE1E200022052107F058F81E2007F046
:1017F00087F808B010BD00BF000800400044025840
:10180000000C0258F0B5B9B00021142201A824F050
:10181000D3F83F4B1968002978D10124C02208A8C9
:101820001C6024F0C9F84FF08072002306A81894B9
:10183000CDE906230AF0B8FF08B1FFF7F7FC354BF6
:10184000022700260325D3F8D4200C2401A932480E
:1018500042F48052C3F8D420D3F8D430059403F472
:1018600080530093009B40F2FF63CDE90365CDE90F
:10187000013707F069FE602301A928480594CDE9E6
:101880000137CDE9036507F05FFE4FF6837301A9C9
:1018900023480594CDE90137CDE9036507F054FEEF
:1018A0004FF47F4301A91F480594CDE90137CDE9E5
:1018B000036507F049FE48F2331301A91A4805945D
:1018C000CDE90137CDE9036507F03EFE4CF2037325
:1018D00001A916480594CDE90137CDE9036507F064
:1018E00033FE4FF63F0301A911480594CDE90137B6
:1018F000CDE9036507F028FE012301A90D480594F1
:10190000CDE90137CDE9036507F01EFE39B0F0BD22
:101910001408002400440258002002580004025811
:1019200000100258001C025800180258000C0258FF
:1019300000140258000802581A4B1A6810B582BBEE
:10194000194A012440F2FF6118481C60D2F8D430D3
:1019500023F48053C2F8D43007F0DEFE602114482F
:1019600007F0DAFE4FF68371124807F0D5FE4FF408
:101970007F41114807F0D0FE48F233110F4807F0BD
:10198000CBFE4CF203710E4807F0C6FE4FF63F0146
:101990000C4807F0C1FE21460B48BDE8104007F097
:1019A000BBBE10BD1008002400440258002002589D
:1019B0000004025800100258001C02580018025877
:1019C000000C025800140258000802580F2810B5E5
:1019D00004468AB002D901200AB010BD0146002297
:1019E000362006F05BFF362006F08AFF184B69466A
:1019F00002A81C60174BD3F8E82042F01002C3F88D
:101A0000E820D3F8E83003F010030193019B0AF0BB
:101A1000B1FD079BC3B90AF089FD0F4C0F4B236042
:101A200040F2E733E3600E4BB0FBF3F001380023E4
:101A3000606020462361A3600CF05AF90028CAD1E7
:101A400020460BF0F3FFC7E70AF070FD4000E4E723
:101A500078000024004402581C08002400100040B4
:101A600040420F00FEE7FEE7FEE7FEE7FEE77047B5
:101A7000044808B506F01AF80348BDE8084006F027
:101A800015B800BFAC0700244807002401480CF03B
:101A900025B800BFCC03002401480CF01FB800BFDC
:101AA0001C080024014809F09DBA00BF640400240A
:101AB000014807F02FB800BF58060024014809F07C
:101AC0005FB900BFE4050024044808B509F092FCA2
:101AD0000348BDE8084009F08DBC00BF0C05002498
:101AE00078050024014807F018BA00BF3C0600241E
:101AF0000120704708B524F013F8162303604FF057
:101B0000FF3008BD08B524F00BF816230360FEE78C
:101B100070B50D4614460E46731B9C4201DC2046F0
:101B200070BDAFF3008006F8010BF5E770B50D4608
:101B300014460E46731B9C4201DC204670BD16F80D
:101B4000010BAFF30080F5E74FF0FF3070474FF423
:101B5000005300204B607047012070470020704701
:101B60000B4A0346116810B509B90A49116010689B
:101B700009490A4C0344091B8B4206D923F0D0FFC4
:101B80000C2303604FF0FF3010BD1360FCE700BF73
:101B900068080024509B0224000008240010000064
:101BA000DFF834D005F014FE0C480D490D4A00232F
:101BB00002E0D458C4500433C4188C42F9D30A4A02
:101BC0000A4C002301E013600432A242FBD323F04D
:101BD000ADFFFEF751FE704700000824000000240E
:101BE000400100246C000E08400300244C9B02249A
:101BF000FEE7704708B501F019FDBDE8084001F0A7
:101C00009BBC01F015BD4068704741607047521A97
:101C100002EB5302B2FBF3F070470000024BC068C6
:101C20001B685B6A584370476C08002470470000CB
:101C300037B51E4A4FF0804105464FF0FF30D2F8CD
:101C4000E83043F00103C2F8E830D2F8E83003F09E
:101C500001030193019B164B19600021D8601961A3
:101C60009960596001215961D369102203F0700312
:101C700092FAA2F2B2FA82F2D3400E4AD35C83B94E
:101C80000AF032FC04460AF067FAB0FBF4F0E860B0
:101C900007480CF02DF8064803B0BDE830400BF0C3
:101CA0008BBE0AF043FC4400EDE700BF004402583D
:101CB0006C0800246490020810B50446102123F03B
:101CC00066F8204610BD38B5036804461B6931B17B
:101CD0008568984763685B1B0344636038BD984719
:101CE000A060FBE770470000F8B50A4B0F461646A8
:101CF0001D7815B900252846F8BD074C002021465F
:101D000005F00AFD2368002BF4D063683B60A368EC
:101D10003360F0E7C8080024B808002410B5044672
:101D2000042123F034F8204610BD000008B50E4B06
:101D30004FF44872002019684FF4F073C1E9002392
:101D40000C23C1E9023005F057FC084B10B9012201
:101D50001A7008BD1B78002BFBD1054B2E21054ABC
:101D6000054823F08DFB00BFC4080024C8080024E8
:101D7000FC6502080F66020839660208032825D8A8
:101D8000DFE800F0020B131B114B08211A68B2FAAE
:101D900082F252090F4807F061BD0D4B4FF480717C
:101DA0005A68B2FA82F25209F4E7094B4FF4007113
:101DB0009A68B2FA82F25209ECE7054B4FF480714F
:101DC0000548DA68B2FA82F25209E4E7704700BFC8
:101DD000CC0800240024025800140258032825D8F7
:101DE000DFE800F0020B131B114B08211A68003AC0
:101DF00018BF01220F4807F031BD0D4B4FF4807121
:101E00005A68003A18BF0122F4E7094B4FF40071F9
:101E10009A68003A18BF0122ECE7054B4FF4807135
:101E20000548DA68003A18BF0122E4E7704700BFAE
:101E3000CC0800240024025800140258032811D8AA
:101E4000DFE800F00206090C0821074807F00BBD87
:101E50004FF48071F9E74FF40071F6E74FF48071A9
:101E60000248F3E7704700BF0024025800140258EC
:101E700008B5032815D8DFE800F0020A0D10082184
:101E8000094807F0E5FC431E5842584108BD4FF48D
:101E90008071F5E74FF40071F2E74FF48071034869
:101EA000EFE70020EFE700BF0024025800140258BB
:101EB00070B5084D00240126E0B2FFF7D9FF18B134
:101EC0002B68012B18BF2E6001340435052CF3D18B
:101ED00070BD00BFCC080024012380F8781080F882
:101EE000793070470020704741640039024B18BFB9
:101EF00001211970704700BF2B8E0224002070470B
:101F0000836B0BB10846184770474FF6FF70704758
:101F1000406803689B691847014B1868704700BF09
:101F2000F0080024704701F080BC01F00FBC01F004
:101F3000E1BD01F0D3BD000010B5044601F096FDEF
:101F400094F84B3013B1024B01221A7010BD00BF40
:101F50000C00002401F002BC10B504460FF0F8FBA1
:101F600023682046D3F8AC30BDE81040184710B5C0
:101F700004460EF083FF60680368BDE810401B69EB
:101F800018470EF051BE10B504467C2122F0FFFE2A
:101F9000204610BD024B00221A700EF081BE00BF19
:101FA0000C00002438B50446064D01F0FFFB002369
:101FB000284684F84A30FFF73BFE0123256184F868
:101FC000703038BDE00800240368044607B5D3F834
:101FD00080309847236820469B6F984700F05CFF4D
:101FE000236820461B6F98470021292315220548A6
:101FF000009107F0A2F900F04FFF236820461B6F05
:102000009847F8E73C06002490F834100D4B10B5C3
:1020100090F878401A788C4209D03AB90A490B4AAC
:1020200008881488108001220C801A7010BD002AC4
:10203000FCD0064A0449148808880C8010800022CD
:10204000F3E700BF248E0224228E0224208E022475
:1020500008B5094B1B888B4203D8084B1B88934259
:1020600005D9074B9E21074A074823F009FA074B79
:102070001980074B1A8008BD208E0224228E02246C
:10208000A4660208076702084A670208268E02242F
:10209000288E0224034690F87A0018B15868036825
:1020A0001B6818477047000070B50D4619460B4B6A
:1020B0001D6035B90A4B40F2D2210A4A0A4823F082
:1020C000DFF9C0E90F52003A084B18BF01221A701D
:1020D0000368BDE87040D3F88C301847F00800243E
:1020E0009D670208D56702084A6702082A8E022403
:1020F000C0E90112C3604FF480720023C0E91223CB
:102100001D4A038580F82A30C362038680F8583060
:10211000436680F87030436770B5C0E91A23BDF894
:102120001050164ABDF814602035C0E90433C0E9E8
:102130000633C0E90833C0E90E33C0E91033C0E903
:102140001433C0E917338267ADB20D4AB54210604F
:102150000C4A15800C4A158028BF00250B4A38BF51
:10216000012516800A4A80F834501680094A1370F7
:10217000094B036070BD00BF0100000100000101B8
:102180002C8E0224208E0224268E0224228E0224EB
:10219000288E0224248E02242C680208012B13B5F9
:1021A0000ED8D35C152200930B460146084807F071
:1021B000C4F818B16FF0070002B010BD0020FBE7B3
:1021C000CDE9001201463922014807F0C7F8F0E7CF
:1021D0003C0600241FB5CDE90112062100910146FD
:1021E000054807F01BF9002814BF6FF00700002016
:1021F00005B05DF804FB00BF3C0600241FB54FF29C
:1022000001430B4C39220021ADF80C3003AB2046C2
:10221000019344230093022307F0A0F80021352303
:1022200015222046009107F088F804B010BD00BFC9
:102230003C06002408B5FFF7E1FF0C4B02221B68A7
:10224000C3F810240122C3F81024D3F8082442F064
:102250000102C3F80824D3F8082442F00202C3F8AC
:1022600008240322024B5A6308BD00BF3C06002429
:1022700000100050074B07B5197839B901220648FC
:102280001A7029231522009107F057F803B05DF862
:1022900004FB00BFDC0800243C060024064B07B505
:1022A00001932A233922002100930423034807F0D5
:1022B00055F803B05DF804FB080000243C06002438
:1022C000064B07B501932A233922002100930423EA
:1022D000034807F043F803B05DF804FB0400002452
:1022E0003C06002438B5144D04460020FFF746FD97
:1022F0002A6892F86A30013382F86A3000F0C0FD33
:102300000E4B2A6819781B7882F84A1073B10C4D6D
:102310002B7803F0FF024BB90A4B1A60FFF7BEFFA0
:10232000204606F0FAFF01232B7038BD0020BDE8DF
:102330003840FFF753BD00BF2C8E02240C00002450
:10234000F8080024F40800242DE9F043484E85B035
:1023500004463378002B00F08880DFF83891DFF8EE
:102360003881D9F80050434F002D3ED10120424E14
:1023700005F0DEFA23680095D3F80424386822F0CB
:10238000080200F59660C3F80424D3F8042402F090
:1023900008020092009AD8F80020C2F8AC00374832
:1023A0000661374E46613748C2F888003648C2F8A1
:1023B000B000516A41F0010151620195D3F8042443
:1023C00042F00802C3F80424D3F8043403F00803ED
:1023D0000193019BFFF774FF01232046C9F80030E9
:1023E00005B0BDE8F04306F098BF036800253868E3
:1023F0000295D3F80424254C22F00802C3F80424E3
:10240000D3F8042402F008020292029AD8F80020BD
:10241000C2F8AC001948046104F101144461194880
:10242000C2F888001848C2F8B0002846516A41F046
:10243000010151620395D3F8042442F00802C3F865
:102440000424D3F8043403F008030393039BFFF739
:10245000C5FCFFF70FFF0E4B3570186828B10368F5
:102460001B6A05B0BDE8F043184705B0BDE8F0832E
:10247000F8080024F0080024E201B2010010005026
:10248000E301920103009201B304C009E201920149
:102490002C8E0224F408002464040024014608B5AC
:1024A000034B186801B101210FF06CF9012008BD40
:1024B0002C8E0224034B00225A609A60024A1A6052
:1024C000704700BFE0080024DC65020840697047DF
:1024D00090F840007047036B23B9C06A003818BFFA
:1024E00001207047012070478068704770470430B2
:1024F00010B50C460FC884E80F0010BD70470000EF
:1025000008B5034A4FF4E271024B034822F0B8FFCA
:10251000FC680208F98B02085769020810B50446E6
:10252000482122F034FC204610BD000000220E4B52
:1025300010B5114604460360C26380F84020C0E92C
:102540000522C0E90722C0E90922C0E90B22C0E93F
:102550000D22C0E90322C0E9012201200BF0B8FFDF
:10256000024B1860204610BD8C6B0208180900242D
:1025700010B40C4611461A46036B3BB1C36B406B5B
:10258000E41A20445DF8044B23F01EBAC06AF8E751
:10259000036B10B573B1C36B426BC91A5318525C0D
:1025A00098785C78000440EA04201043DB7840EA25
:1025B000036010BDC26A5318525C597898780004C1
:1025C00040EA0120F1E7036B43B1C36BC91A436BC7
:1025D0005A18585C527840EA02207047C36A5A1869
:1025E000585C537840EA03207047000070B50446F9
:1025F000006B0D461646D8B1A36B934208D209234F
:102600000D4A9E210D4884F840300D4B22F038FFD2
:102610000368DB689847206B3246616B03681B696F
:10262000984710B90D2384F84030606BE56370BDA6
:10263000E06A0844FBE700BFC7690208576902085F
:10264000B46902082DE9F843436904462BB9224BCB
:10265000E421224A224822F013FF08228169FFF771
:10266000C5FFA16943F2300646F2643704312046C3
:10267000FFF78EFFA3691844A36A00F108029A428B
:1026800006D3012300206361236AA361BDE8F883B8
:10269000636900F1090108222046013321F001019C
:1026A0006361A161FFF7A2FFD4F818902046494664
:1026B000FFF789FF09F1020180462046FFF783FFFB
:1026C00009F1040105462046FFF762FFB045D1D16C
:1026D000BD42CFD10120D9E7096A0208526A020837
:1026E000576902080129036838BF0121DB6A70B508
:1026F0000D4604469847A84204D223682046DB6A68
:10270000984705466B1EE6691022204606EB031625
:1027100006F10801FFF76AFF06F110012046FFF7F6
:1027200037FF236A043B0344C4E9055370BD00002E
:10273000002148222DE9F0410446816180F84010D3
:10274000FFF754FFA6690423634A31462046FFF78A
:102750000FFF48B10323614A4FF4967184F840306B
:102760005F4B604822F08CFE06F1080104235E4AAC
:102770002046A161FFF7FCFE38B10423574A4FF40D
:102780009A7184F84030594BEBE706F10C010423B1
:10279000574A2046A161FFF7EBFE074638B10523F3
:1027A0004E4A40F23B1184F84030524BD9E706F1D3
:1027B00010012046FFF7ECFE054620B94E4B40F2D3
:1027C0004111464ACDE706F1140804234B4A20463E
:1027D0004146FFF7CDFE002849D0062384F840305B
:1027E0000423474A06F118012046FFF7C1FE0028DE
:1027F0003FD0072384F840304544424F0C22204606
:102800002946FFF7F3FE05F1080604233A46204661
:102810003146FFF7ADFE94F84030002848D0002B39
:1028200048D1A36AAB4249D805F10C0304352046D0
:10283000A3612946FFF7ACFE30442946606220467A
:10284000FFF7A6FE0644042220463146FFF7CEFEDF
:1028500004232D4A31462046FFF78AFE002838D14E
:102860000123E6616361A3692362BDE8F08101276A
:10287000B6E7002FC0D006F120012046FFF788FE02
:102880004FF47A7306F13001B0FBF3F0606020463C
:10289000FFF77EFE06F14001A0602046FFF778FEBC
:1028A00006F14401E0602046FFF772FE2061A3E7D5
:1028B000002BB9D00A2384F84030D6E7291D2046E2
:1028C000FFF766FE85190C2220462946FFF78EFE8B
:1028D00099E70B23EFE700BF856A0208A36A0208A5
:1028E0008A6A020857690208D06A0208D56A020893
:1028F000ED6A0208F26A0208086B0208146B02080B
:10290000196B02081E6B0208236B0208C0E90A213A
:1029100000220263FFF70CBF10B5002304460846EF
:10292000E3620B6821639B689847A0622046BDE87C
:102930001040FFF7FDBE000037B5144C144D236066
:102940000024144B1C60144B1C60144B2C601C6046
:10295000134B1960134B1A60134B1C60134B2A68FE
:102960004FF4C0751C701C74C3E90244C3E90644EB
:1029700003EB02130E4AD2686A4300924FF45042AE
:102980005B6807F073FE204603B030BD449F00240F
:10299000209F0024309F002414090024409F00241D
:1029A000389F00243C9F00241C09002410000024B0
:1029B000FC0800244B68012B15D1CB681A071EBFF9
:1029C00023F00F031033CB608B6818071EBF23F072
:1029D0000F0310338B60CB688A681B0912095343BD
:1029E0000E4A13607047022B0ED1CB681A0703D032
:1029F00023F00F031033CB608B685A071EBF23F000
:102A0000070308338B607047002BFCD1CB68580755
:102A1000F2D023F007030833EDE700BF289F00241E
:102A20000B4A13680B4430B413600A4A126893428D
:102A30000CD2094CD21A2568B2F5504F294428BF50
:102A40004FF45042216030BC07F072BE30BC70477A
:102A5000409F00243C9F0024389F0024F8B5204C60
:102A60000121204D064623681F4F1B01E9542368AE
:102A700005EB03139A601D4B1968226805EB0212DF
:102A8000D1601A68F9680A441A6023680133236028
:102A90002368012B01D90023236023681B01EB5C11
:102AA00033B10221304607F015FE114B01221A60A6
:102AB00022683046FB6805EB02154FF4C072696866
:102AC0005A4307F038FE0B4B1B681A7A3AB99B7AC7
:102AD0002BB9094B1868BDE8F8400BF06FBDF8BD85
:102AE000209F002410000024FC0800241C0900245E
:102AF000309F0024249F00241809002472B6FEE7AA
:102B0000014B01221A607047349F002438B5164DDE
:102B100004462B6813B1154B1B681BBB144B18687C
:102B2000037A63B9134B144A1B681B01D35C012B56
:102B300005D10E4B1B6813B903681B6998470F4AF0
:102B40001368012B0CD10E4B0B491B681B01CB5C8E
:102B500033B92B6823B902212046136008F019F815
:102B6000022038BD0120FCE7349F00241009002416
:102B7000249F00241409002410000024309F002406
:102B8000209F002470B50546002A35D0002B33D095
:102B90001A4803240461EC6826074FF4166618BF30
:102BA00024F00F04466018BF103404602409C46088
:102BB0002C6914F00F0418BFC4F11004846010488D
:102BC000FFF7BAFE0F4C6A6C0F4B0D4D1A6028468A
:102BD000FFF79CFF20602368022B05D10B4B4FF0C1
:102BE000FF3118680BF0BEFC2368012BEFD10023E6
:102BF000074A1360074A136070BD00BFFC08002439
:102C0000E40500242C9F0024249F0024180900249C
:102C1000349F0024100900242DE9F04F99464369A0
:102C200085B004460F4690462BB9294BB021294A5E
:102C3000294822F025FC08228169FFF7D7FCA66904
:102C400020463146FFF7BFFCB11C83462046FFF704
:102C5000BAFC311D82462046FFF79AFC06F10801B6
:102C6000A36A054642189A4226D243F230039B4596
:102C700017D146F264339A4513D190B10246A1614F
:102C80002046FFF7B3FC0E9B01462A462046CDF8AE
:102C90000080CDE901933B46FFF774FF6369013380
:102CA0006361A3692B4405B908330133626A23F0D9
:102CB00001039342A36109D1012301206361236AC7
:102CC000A36180F0010005B0BDE8F08F0020F8E7B7
:102CD000096A0208286B020857690208F8B5044619
:102CE000816916460822FFF781FCA7692046391D35
:102CF000FFF74EFC07F10801024605462046FFF7A4
:102D000075FC01466EB12A46074C084D334607480C
:102D1000FFF712FE2846FFF7F9FE20602368002B1C
:102D2000F8D00120F8BD00BF2C9F0024E40500244A
:102D30001B4AD0F80CC0F0B54FEA0C131468556864
:102D4000184E194FB3FBF4F104FB11334D431169D5
:102D500001FB03F401232D0173633F68D368FF1A5D
:102D60001905BC4517D39268C2F110020A43726478
:102D70000E4AC3F1320311681B010A4A2144294457
:102D8000D163136400231361094BD3614368D3609B
:102D9000084B1360F0BD41F010017164E8E700BF1B
:102DA000FC08002400100052289F0024449F0024A7
:102DB0000B0009FF012301000C4B0022027019686F
:102DC0008260013119601968012900D91A60084B25
:102DD000084A1B68D2689B1AC2689A4202D3064B03
:102DE00001221A60054B18680BF0E8BB1409002497
:102DF000289F0024FC08002410090024180900243E
:102E00000121002208B508460BF062FB0A4B18604E
:102E100028B90A4B28210A4A0A4822F031FB00222D
:102E2000042101200BF0F3FB074B186018B9074B86
:102E30002C21034AF0E708BD4C9F0024C86B020810
:102E4000116C0208406C0208489F0024936C020831
:102E5000024B4FF0FF3118680BF084BB4C9F0024ED
:102E6000014B18680BF0AABB4C9F0024024B0021B9
:102E700018680BF077BB00BF4C9F0024FFF7F0BF32
:102E80000023034803491A4600680BF0FBBB00BF50
:102E9000489F00243000002413B50023074C01A9EB
:102EA0001A4620680BF01FFC4FF0FF33002201A9E7
:102EB00020680BF018FC02B010BD00BF489F002432
:102EC00003685B6C184701207047FEE740F2EF3063
:102ED0007047000010B504464FF0FF31D0F8A40D44
:102EE0000BF0B4FA606803681B68984778B9637A96
:102EF0006BB1237A5BB984F8A03D204623685B6AF6
:102F00009847D4F8A40DBDE810400BF0C2BA0B49A5
:102F10000B4A0B681B01D35C012BF2D1207A0028ED
:102F2000EFD1A07A0028ECD1086884F8A03D02EB2C
:102F300000102372FFF7FCFEE3E700BF1409002432
:102F400010000024054B4FF080620360044BC3F86F
:102F50008820BFF34F8FBFF36F8F7047386E020822
:102F600000E100E010B5044640F6A851FFF7EAFF83
:102F7000204621F00CFF204610BD0000104B82B00F
:102F8000D3F8D42042F01002C3F8D420D3F8D420D0
:102F900002F010020192019ADA6F42F01002DA6731
:102FA000DA6F22F01002DA67064B074A1A62074A04
:102FB0005A62074B4FF080629A6002B0704700BFC0
:102FC000004402585806002419320008CB2E00088D
:102FD00000E100E008B50A2809D8DFE800F0061093
:102FE0000E080808081010101000022008BD054B3C
:102FF0009121054A054822F043FA0020F6E7012016
:10300000F4E700BFD56C0208F06C02083B6D0208C3
:1030100038B50C46887FFFF7DDFF124BA58AE28AA0
:10302000586342EA054221695A64628BD963521B94
:103030001A642568082D0ED19A611A6158620A4AED
:10304000207F42EA0062DA61E2681A62074A596147
:10305000D9601A6038BD0022D8611A61E2689A63AB
:10306000034AF6E7001000520900010001230200A4
:103070000123030008B50B280BD8DFE800F0061287
:10308000100A0A0A0A0808080808022008BD0520D4
:10309000FCE7054B7021054A054822F0F1F90020B4
:1030A000F4E70120F2E700BFD56C02088C6D02083E
:1030B0003B6D02082DE9F8434F7F89463846FFF7FC
:1030C000D9FF99F81E5080462846FFF7D3FF0646E1
:1030D0002846FFF77FFFB9F81410B9F81A40B9F87D
:1030E0001820454B641A521A1C649C611A61B9F885
:1030F0001620586342EA0142D9F810105A64D9F8F0
:103100000420D963DA60D9F8004099F81C20802C9B
:1031100022D00FD8202C66D0402C64D0042C5CD058
:1031200048EA0260344BAF4240F40030D86160D0CE
:10313000324A3FE0B4F5807F04D0B4F5007FEFD190
:103140002F4800E02F4840EA0262DA61D9F80C20EB
:103150001A625E6259612CE048EA0260D9F80840C0
:1031600040F40030D8615E625961211DD962217836
:1031700041B1012921D0244B40F20B11234A2448AC
:1031800022F07EF9DA69618822F47F42013922F067
:10319000100242EA0122DA610122174BD96941F09B
:1031A0002001D961D9698906FCD410219960002ACF
:1031B000BED0184A1A60BDE8F883D969FF3A608822
:1031C00021F47F4118BF0122013821F0100141EAAA
:1031D000002141F01001D961DFE748EA026242F4C0
:1031E0000032DA61B5E748EA0262034B42F400328A
:1031F000F7E742F20132DDE700100052012301003F
:10320000090002000A000200D66D0208F06D0208F3
:103210003B6D020801230200024B1B6858680368DB
:103220005B6918472C8E022490F8A03D10B5044627
:10323000D3B903689B6A984719491A4A0B681B015E
:10324000D35C012B2AD11848006838BB207A28BBF0
:10325000A07A18BB086884F8A03D237202EB001026
:10326000BDE81040FFF764BD037A43B10023037249
:103270000B4B18680B4B03EB0010FFF79DFD6068CC
:1032800003681B68984748B9637A3BB1236884F8A0
:10329000A00D20465B6ABDE81040184710BD00BF76
:1032A00014090024100000241009002470B50446FD
:1032B0000E4B0C3000262546602260602672667236
:1032C00045F8203B29460EF0A1FB04F55A63EE6059
:1032D00024359D42FBD184F8A06D0020C4F8A46D74
:1032E0000BF07FF8C4F8A40D204670BD386E0208BC
:1032F000034B1A68D207FCD423229A60704700BFA0
:10330000001000520B4A5369DB0311D500290FDD71
:1033100000F01F031944BFF34F8F0144C2F8680245
:1033200020300B1A002BF9DCBFF34F8FBFF36F8FE8
:10333000704700BF00ED00E030B5104C2568ED0788
:10334000FCD423250904FF2BA5604FF0010541EAB9
:10335000050165636164E0630CD0094922F07F4296
:10336000656241EA0363E361064B22626061E060EB
:10337000236030BDE561044BA263F9E70010005201
:1033800009000100010002000100030030B50E4CED
:103390002568ED07FCD423251204FF2BA5604FF010
:1033A000010542EA050265636264E063E16007D0FB
:1033B000064A42EA0363E36165626061226030BDF0
:1033C000034BE3612560FAE70010005201000200A0
:1033D000010002FF30B50B4C2568ED07FCD4232516
:1033E00012041B06A560012543F400332A436563DC
:1033F0006264E063E160E361034B656260612360E6
:1034000030BD00BF001000520100020001207047D3
:103410000C2070470C2303FB0100083070470C237D
:1034200003FB0100083070470120704743F6B430B9
:10343000704743F6B43303FB01000830704743F68E
:10344000B43303FB0100083070470120704710209F
:10345000704700EB01100830704700EB0110083096
:103460007047084600F056BE034B10B50446036093
:103470000DF031F9204610BDF06E020810B504467B
:10348000FFF7F2FF1421204621F081FC204610BDF9
:10349000034B10B5044603600DF01DF9204610BD26
:1034A000BC6E020810B50446FFF7F2FF43F6BC31CC
:1034B000204621F06CFC204610BD0000034B10B5E7
:1034C000044603600DF007F9204610BD886E02081F
:1034D00010B50446FFF7F2FF1821204621F057FCF3
:1034E000204610BD094B10B50446036000F56F502F
:1034F0002830FFF7B9FF04F12C00FFF7C9FF04F1F2
:103500001400FFF7DBFF204610BD00BF246F020848
:1035100008B50248FFF7E6FF08BD00BF08AE00246B
:1035200010B50446FFF7DEFF43F66051204621F058
:103530002EFC204610BD00002DE9F34100F060FC98
:103540000024054600F060FC23460146224628463A
:10355000009416F097FE274B274A2046274D1A6005
:1035600002F01EF8264B274A27489A6016F036FDCF
:103570002B68BFF35B8FDB0736D4284621F009FCAC
:1035800090B3224C224F234B04F1140007F11C0688
:1035900004F12C0823606060C4F80880E7602661AD
:1035A0000DF09AF81C4B404663610DF095F81B4BEB
:1035B0003846E3620DF090F804F54053184A03F6DC
:1035C000FC30C3F8E82B02F079F8224607F1140129
:1035D000304602F069F8304600F09CFD114821F0B9
:1035E0006DFF284621F0E1FB0F4802B0BDE8F04135
:1035F000FEF7D8BC908E0224CC9F002404AE002499
:10360000EC9F0024D09F00243400002408AE002446
:10361000F0E90024246F0208886E0208BC6E0208DC
:10362000F06E020811350008509F0024704700001A
:103630000148FEF7C9BC00BF509F002473B50E4C73
:103640000E4B0F4E20460F4D3360FFF72FFE2846DE
:103650001AF030FC0C4814F01DFA4FF448734FF484
:10366000F07221460948CDE9003233462A46FEF77A
:103670003FFD02B070BD00BF58A000249466020850
:1036800000AE0024EC9F0024D09F0024509F002413
:103690000148FFF757BC00BF58A000240020704726
:1036A00081807047C18070470181704741817047B8
:1036B0007047704770477047704710B4C4880368FC
:1036C000121B84885B6D091B12B25DF8044B09B2B2
:1036D00018474FF6FF7383814FF0FF33036213687F
:1036E000C36110607047002070478B888380012081
:1036F0007047704780F82610704790F82600704792
:10370000002210B5B1F90840B1F90A1002804280D8
:103710008480C18010BD0022028042808280C280ED
:1037200070470177704780ED080A704780F82410D1
:10373000704780F825107047012070479830704717
:103740008C3070478430704770470000024B9022E5
:1037500083F85A23704700BF00E100E0704701631F
:10376000C0E90D21704770477047704700EB81003A
:10377000114640680368DB68184780F83C107047C2
:1037800010B50446482121F002FB204610BD10B5BB
:1037900004462C2121F0FBFA204610BD10B504464A
:1037A000BC2121F0F4FA204610BD000038B50446D3
:1037B0000DF08FFA23685D6E13F03EF80146204647
:1037C000A847236808492046D3F8885000231A46A2
:1037D000A8476368054A5364054B5A60054A1A6353
:1037E0009A63054A5A6338BD009411D070EC0024E6
:1037F00028EC0024000000D00094110038B50446E5
:103800000D46406C4FF0FF310AF020FE606C0AF06C
:1038100040FE242303FB0545002385F8283094F857
:1038200028300BB9236BA36338BD0DF003BA0DF03C
:1038300064BB90F8252012B103685B691847704794
:10384000124A5369DB0370B51ED50023C2F88430D9
:10385000BFF34F8FD2F8803043F6E074C3F3C90052
:10386000C3F34E335B0103EA0406014646EA817561
:103870000139C2F87452F9D2203B13F1200FF2D172
:10388000BFF34F8FBFF36F8F70BD00BF00ED00E03F
:1038900008B531B1044B4FF4B871044A044821F023
:1038A000EFFD90F8290008BD306F0208446F020850
:1038B000CE70020810B531B1064B4FF4B571064A0F
:1038C000064821F0DDFD406811460368BDE8104060
:1038D0001B6B1847306F020818710208CE7002087F
:1038E00008B529B1034B7921034A044821F0C8FDEA
:1038F000C06808BD306F0208C6720208CE700208A8
:1039000010B5044629B1194BA221194A194821F0D2
:10391000B7FD052A15D8DFE802F0031115171C22A0
:10392000406803681B69984758B1012384F829301F
:1039300084F82C300023C4E9043302E0002380F82B
:10394000293010BD0362F5E70362012380F82A30B5
:10395000F0E7002380F8293001230362F1E7003B00
:1039600018BF012380F82D30EBE700BF306F02084D
:103970007B740208CE70020810B50C4611461A4638
:103980002CB1064B9021064A064821F079FDC4600F
:1039900040680368BDE810409B681847306F020814
:1039A0004F760208CE70020808B529B1054B822176
:1039B000054A064821F064FDC0E90411C0E9063259
:1039C00008BD00BF306F02082A780208CE700208D6
:1039D00090F83D3010B5044653B14FF0FF31406CC4
:1039E0000AF034FD002384F83D30012384F83E3092
:1039F00010BD90F825201AB190F8242002B118606B
:103A00007047000010B50446104629B1134BD02171
:103A1000134A144821F034FD94F8293033B1124B85
:103A20001B6893F86B2063691344636194F82B302F
:103A30000BB9012010BDA368036303685B69984755
:103A4000002394F82C0084F82B300028F1D194F84E
:103A50002D30002BEED184F82900EBE7306F0208FF
:103A6000E6790208CE7002082C8E022470B51A4C3A
:103A700005460DF021F994F8293013B994F82A304D
:103A8000ABB1E169D4E90532534322694A43934219
:103A90000DD394F83C0038B19B1AB3FBF1F2994274
:103AA00098BF02F1FF326262012384F82E300123B5
:103AB000206C84F83D300AF081FD94F83E302BB143
:103AC000606C0AF0E6FC002384F83E306868036806
:103AD000BDE870401B69184728EC0024044B4FF0E8
:103AE0008062C3F88820BFF34F8FBFF36F8F70479A
:103AF00000E100E0024B4FF080629A60704700BF27
:103B000000E100E0F8B5034690F82800D8B94FF47A
:103B100080729E6B0125D8609A8506F58C1218611B
:103B200002F5A05258619861D861186258629D628E
:103B300083F82E00D3E90C473C44A2420AD90B4B30
:103B400052210B4A03E00B4B40F2C5110A4A0B48C5
:103B500021F096FC9E609A634FF4487381F83450CC
:103B6000CB864FF4F07308630B87F8BD3E7D0208E7
:103B7000797D0208877B0208B77B0208CE700208B5
:103B8000002370B5124E04468380124B03603368E5
:103B900093F858200AB1D86C00B998680368DB6ABA
:103BA0009847431E5D425D413368D86C30B103686D
:103BB000DB6A9847012808BF45F001052DB9064B7F
:103BC0002721064A064821F05BFC204670BD00BF55
:103BD0002C8E02242C8002081C7F02087A7F0208A7
:103BE000B37F020870B5244E3568BFF35B8F15F0C4
:103BF00001053FD1304621F0CCF800283AD01F4CC7
:103C00001F4B04F134002561E584A562A585C4E954
:103C10000035C4E9025514F09CF904F158000FF086
:103C20007BFA184B2046A365174B40F8843BFFF7FF
:103C3000A7FF164B1648C4F884302433C4F89050BC
:103C4000C4F88C306423C4F89C50C4F8A850C4E96C
:103C500028350023C4F8AC30C4F8B030C4F8B43010
:103C6000C4F8B8300B4BC4F8983021F027FC30462C
:103C700021F09BF8014870BD68EB00246CEB002438
:103C8000F49302084C800208C480020840940208A1
:103C900049370008789402082DE9F74304460126C5
:103CA0004FF416674FF0FF31206C0AF05BFC4FF0C9
:103CB000FF31606C0AF0CAFB94F82E3043B365689C
:103CC000D4F820802B6884F82B60B8F1000F23D043
:103CD0005B6A414628469847002323622B684FF4CD
:103CE000487200972846D3F814804FF4F073A16807
:103CF000C047236984F82C0001332361F0B12B689D
:103D000028469B6A984701380023E06084F82E30EB
:103D1000606C0AF0BEFBC5E7626A002ADED0284666
:103D2000D3E909939847616A01442846C847236943
:103D3000626AC4F8248013442361CFE70120E3E7DB
:103D4000014808B5FFF7A8FF28EC002438B514484F
:103D50000025FEF7EBFB134C134B2A4629460120A6
:103D600023604FF48073A563A387A38584F83E5036
:103D700084F82E50C4E90C55C4E91055C4E9015526
:103D8000C4E90355C4E90555C4E90755C4E9095513
:103D90000AF09EFB206428460AF023FB606438BDCD
:103DA00070EC002428EC002410810208704708B54C
:103DB00005291CD8DFE801F003070B0F131701F0EA
:103DC0003BFC006808BD01F037FC4068FAE701F0F1
:103DD00033FC8068F6E701F02FFCC068F2E701F0E1
:103DE0002BFC0069EEE701F027FC4069EAE70020C0
:103DF000E8E710B50446042120F0C9FF204610BDB5
:103E000000487047608102080120704713B5002404
:103E100051B1036801AA01948DF803409C680DF12B
:103E20000303A04702B010BD0846FBE7C0897047F6
:103E3000008A7047C088704780887047807A00F099
:103E40007F007047807AC0097047002070470000EB
:103E50009FED010A704700BF00000000704710B5D9
:103E60000446082120F093FF204610BD704770479C
:103E700000F598730868496803C370477047704736
:103E80004160704770470000064BC0F84801C0F819
:103E90004C310023C0F8503100F5A273C0F8403116
:103EA000704700BF493F0008012303727047704705
:103EB000704710B441680346C2689B68541001EB18
:103EC0006200D20748BF0A595DF8044B48BFD35877
:103ED00018470346406830B19A681AB9D86800F0AC
:103EE000010070470120704710B504460C2120F0F6
:103EF0004EFF204610BD10B50446102120F047FFAC
:103F0000204610BD10B504464FF4AE7120F03FFFBF
:103F1000204610BD10B512F08FFC0368BDE81040BC
:103F2000DB6B184710B50446D0F8400158B1036860
:103F3000DB68984738B1D4F8400103689B6898471C
:103F40000023C4F8403110BD2DE9F14FD0E9556A86
:103F50000746B06803681B6A984743F6B333984234
:103F600005D8444BA321444A444821F089FA70689B
:103F700003681B6A98470F2803D8414BA4213E4A87
:103F8000F2E7F06803681B6A98470B2803D83D4B9B
:103F9000A521394AE8E7DFF8F49012F04DFC04302F
:103FA00012F06FFCD9F8000010B10368DB68984785
:103FB000D9F8000010B103681B689847DFF8D0807B
:103FC000D8F8000010B103685B699847D7F83C0146
:103FD00010B103685B689847D8F8000010B1036817
:103FE0001B689847D7F83C0110B103689B68984755
:103FF000F06800214FF0000B03685B6A9847224B82
:104000000446C0F804B080F808B059460360B068B0
:1040100003685B6A9847054601F0DCFC7068594606
:1040200003685B6A98470646294601F0A7FC331DE2
:10403000C7F83C612846CAF804302B68C6F808A0C7
:10404000DB68C9F80040C8F80050EE639847336851
:1040500030461B6898472146284614F0ABFC23687D
:1040600020461B699847236820465B6901B0BDE87C
:10407000F04F18478481020812820208E482020885
:1040800039830208DC830208F4840208748E022457
:10409000708E0224044B1B6893F858200AB1D86C28
:1040A00000B99868704700BF2C8E0224F8B51746F7
:1040B00004460E4612F086FC124B00251C60294671
:1040C000114B2360114BC4E95135114B1868C4E9F9
:1040D00053550368C4E94F559B68C4E95576984722
:1040E000284601F05DFAFFF7D5FF1AF0E4FFFFF76D
:1040F000D1FF1BF057F8FFF7CDFF1BF05FF820460C
:10410000F8BD00BF808E0224A084020888840208C3
:104110002C8E0224064BC0F84801C0F84C31002315
:10412000C0F8503100F5A273C0F84031704700BFAD
:10413000493F0008406A7047806A704770478B8823
:10414000C069DB0A0A6850F823001044704710B5B4
:104150000446BAB1107B68B1537BD27A1B0203F4D8
:10416000E0631A43236A03EB82031A888A4202D16E
:1041700093F9020010BD05D80138043380B200283D
:10418000F3D1F7E70020F5E710B504462C2120F025
:10419000FEFD204610BD000030B58BB00446BDF8D2
:1041A00060500895BDF85C5007959DF850500695F5
:1041B0009DF84C5005959DF8485004959DF8445045
:1041C00003959DF8405002959DF83C500195BDF82F
:1041D0003850009513F07AFF064B20462360159B5C
:1041E000E361169B2362199B63621A9BA3620BB067
:1041F00030BD00BF18850208704770477047704790
:10420000704730B585B00368044601816D460146AC
:10421000D3F884303C342846984795E8070084E872
:10422000070005B030BD30B585B003680446418154
:104230006D460146D3F884303C342846984795E8CB
:10424000070084E8070005B030BD002202804280EC
:104250008280C280704780F836107047036870B55E
:1042600004461B6B154698472368204629465B6E1B
:10427000BDE87040184700207047806C7047704759
:10428000704710B504464C2120F081FD204610BD3A
:10429000034B10B50446036010F0D6FD204610BD58
:1042A00070870208064B10B50446036010F0CCFD81
:1042B00043F6B431204620F06AFD204610BD00BF11
:1042C0007087020808B5FFF7B4FA08BD036870B537
:1042D0005E6B0446114B8DB21B682BB9104B6C21E1
:1042E000104A114821F0CCF81049828D098891427A
:1042F00003D80F4B6D210B4AF3E713F812200D4B37
:104300001B6853F8220003681B6B9847291A334631
:10431000204609B2BDE87040184700BF848E0224D1
:1043200078850208BA850208F5850208888E02247D
:104330004A8602088C8E0224036870B504461B6B03
:10434000154698472368204629465B6BBDE87040B8
:10435000184770B504461D46BDF91060FFF7ECFF25
:104360002368294620469B6B9847236831462046A0
:10437000DB6BBDE870401847094A4FF4807102605A
:1043800000228184FF21826280F82610C0E9012288
:10439000C0E90322C0E90522C0E90722704700BF37
:1043A0002C97020838B504460D46FFF7E9FB034B8E
:1043B0002046E56023602433A36038BD40940208A2
:1043C00000224FF0FF318260C0E9002170470000F9
:1043D0004FF48072002310B5828404460C4A0363B4
:1043E00002600C4A038782624FF6FF7282854FF4A7
:1043F0007F02C0E90133C0E90333C0E90533C0E9F6
:10440000073342633C30FFF7DBFF204610BD00BF9F
:104410009C9602087C81020810B50446FFF7D0FF85
:10442000204610BD10B50446FFF7D2FF024B2046D0
:1044300023600023A36410BDE086020852014901F5
:104440000FF054B9520149010FF05BB910B4C46BBD
:104450004A01B4EB411F04D05DF8044BC2630FF076
:104460004FB85DF8044B70472DE9F04F0446B5B0E6
:10447000002514F0F3F82646E14B04F16C0904F131
:104480009808E56304F58E7B46F8403B3046FFF71D
:1044900073FF4846FFF770FF40460FF011F804F530
:1044A000847329464FF4F07718461F93FFF77AFF7D
:1044B00058460FF005F804F5C673294604F1040ABE
:1044C00018462093FFF76EFF04F5D0731846039348
:1044D0000EF0F6FF04F50473294618462193FFF702
:1044E00061FF04F50973184604930EF0E9FF04F523
:1044F0002573294618462293FFF754FF04F52A73C3
:10450000184605930EF0DCFF04F54673294618465D
:104510002393FFF747FF04F54B73184606930EF0FD
:10452000CFFF04F56773294618462493FFF73AFF37
:1045300004F56C73184607930EF0C2FF04F584630C
:10454000294618462593FFF72DFF04F234431846F9
:1045500008930EF0B5FF04F2A443294618462693AB
:10456000FFF720FF04F59763184609930EF0A8FFA4
:1045700004F5A563294618462793FFF713FF04F2B5
:104580003C5318460A930EF09BFF04F2AC532946A5
:1045900018462893FFF706FF04F5B86318460B93F7
:1045A0000EF08EFF04F5C663294618462993FFF7DF
:1045B000F9FE04F2446318460C930EF081FF04F2F6
:1045C000B463294618462A93FFF7ECFE04F5D96335
:1045D00018460D930EF074FF04F5E763294618465C
:1045E0002B93FFF7DFFE04F24C7318460F93FFF78F
:1045F000EFFE04F2947318461093FFF7E9FE04F2FD
:10460000DC7318461193FFF7E3FE04F62403184603
:104610001293FFF7DDFE04F66C0318461393FFF7C1
:10462000D7FE04F6B40318461493FFF7D1FE04F640
:10463000FC0318461593FFF7CBFE04F64413184607
:104640001693FFF7EFFE04F5196318461793FFF76B
:10465000BFFE04F6D81318461893FFF7E3FE04F6DE
:10466000242318461993FFF7DDFE04F52763184647
:104670001A93FFF7D7FE04F6BC2318461B93FFF7E7
:10468000D1FE04F6083318461C93FFF7CBFE04F660
:10469000543318461D93FFF7C5FE04F53A631846D8
:1046A0000E93FFF795FE04F6E83318461E93FFF7C6
:1046B000B9FE42F6E06104F6D44010F0BBFB2A4696
:1046C00030464FF4487329460097FFF742FE4FF0FB
:1046D0007F4331465046A3664FF0FF360CF010F88A
:1046E0002A4648464FF4487329460097FFF731FEA3
:1046F0004FF07F4349465046C4F894304FF6FF7957
:104700000BF0FEFF40464FF448732A4629460097B7
:10471000FFF71FFE1F9B40464FF4AA72C4F8C0303B
:104720004FF4967184F81A91C4F81461A4F81861D2
:10473000FFF784FE502240464FF49671FFF782FE49
:1047400040460121FFF782FE404601210EF0E4FFC2
:10475000414650460DF1B0080BF0D2FF58464FF4D9
:1047600048732A4629460097FFF7F3FD209B5846D9
:104770004FF4AA72C4F844314FF4FA71A4F89C9132
:10478000C4F8986184F89E61FFF758FE502258469D
:104790004FF4FA71FFF756FE58460121FFF756FE17
:1047A000584601210EF0B8FF59465046DFF854B084
:1047B0000BF0A6FF4FF448732A462946039800974A
:1047C000FFF7C7FD219B69222946C4F8C831039829
:1047D00084F82292C4F81C62A4F82062FFF72EFE2F
:1047E00069224FF448710398FFF72CFE01210398CA
:1047F000FFF72CFE012103980EF08EFF04E000BFAE
:10480000708702087C810208039950460BF078FFFC
:104810004FF448732A46294604980097FFF799FDFC
:10482000229B4FF4AA722946C4F84C32049884F8AB
:10483000A692C4F8A062A4F8A462FFF7FFFD4FF4AB
:10484000AA724FF448710498FFF7FCFD0121049807
:10485000FFF7FCFD012104980EF05EFF049950461D
:104860000BF04EFF4FF448732A46294605980097EF
:10487000FFF76FFD239BD2222946C4F8D03205985A
:1048800084F82A93C4F82463A4F82863FFF7D6FDBC
:10489000D2224FF496710598FFF7D4FD01210598B7
:1048A000FFF7D4FD012105980EF036FF059950461B
:1048B0000BF026FF4FF448732A46294606980097C6
:1048C000FFF747FD249BD2224FF4FA71C4F854330A
:1048D000069884F8AE93C4F8A863A4F8AC63FFF715
:1048E000ADFDD2224FF448710698FFF7ABFD0121D0
:1048F0000698FFF7ABFD012106980EF00DFF069913
:1049000050460BF0FDFE4FF448732A46294607989F
:104910000097FFF71EFD259B50222946C4F8D83387
:10492000079884F83294C4F82C64A4F83064FFF734
:1049300085FD50224FF448710798FFF783FD012150
:104940000798FFF783FD012107980EF0E5FE079910
:1049500050460BF0D5FE4FF448732A462946089876
:104960000097FFF7F6FC269B40F26D122946C4F82B
:104970005C34089884F8B694C4F8B064A4F8B464BD
:10498000FFF75CFD40F26D124FF448710898FFF795
:1049900059FD01210898FFF759FD012108980EF0F3
:1049A000BBFE089950460BF0ABFE4FF448732A4605
:1049B000294609980097FFF7CCFC279B3A464FF40D
:1049C000C871C4F8E034099884F83A95C4F834659D
:1049D000A4F83865FFF732FD4FF4AA724FF4C8719E
:1049E0000998FFF72FFD01210998FFF72FFD0121FD
:1049F00009980EF091FE099950460BF081FE4FF494
:104A000048732A4629460A980097FFF7A2FC289B7C
:104A10003A46C821C4F864350A9884F8BE95C4F8AB
:104A2000B865A4F8BC65FFF709FD4FF4AA72C82168
:104A30000A98FFF707FD01210A98FFF707FD0121FA
:104A40000A980EF069FE0A9950460BF059FE4FF491
:104A500048732A4629460B980097FFF77AFC299B52
:104A60003A464FF41671C4F8E8350B9884F842962C
:104A7000C4F83C66A4F84066FFF7E0FC4FF4AA7265
:104A80004FF416710B98FFF7DDFC01210B98FFF72F
:104A9000DDFC01210B980EF03FFE0B9950460BF008
:104AA0002FFE4FF448732A4629460C980097FFF7CB
:104AB00050FC2A9BEB222946C4F86C360C9884F8EB
:104AC000C696C4F8C066A4F8C466FFF7B7FCEB222C
:104AD0004FF496710C98FFF7B5FC01210C98FFF785
:104AE000B5FC01210C980EF017FE0C9950460BF006
:104AF00007FE4FF448732A4629460D98009731AFB8
:104B0000FFF727FC2B9BEB224FF4FA71C4F8F03629
:104B10000D9884F84A97C4F84467A4F84867FFF7EB
:104B20008DFCEB224FF448710D98FFF78BFC0121AF
:104B30000D98FFF78BFC01210D980EF0EDFD0D99FE
:104B40005046DFF834920BF0DBFD51224FF4BA717E
:104B50000F98FFF7F1FB0F994046C4F87C67A4F863
:104B600080570EF07BFF04F5F16398E8070083E8B7
:104B70000700182339460F98ADF8C830CDF8C4B0F7
:104B80000FF014FA0F9950460BF0BAFD512240F283
:104B900075211098FFF7D0FB10994046C4F8C46700
:104BA000A4F8C8570EF05AFF04F5FA6398E8070016
:104BB00083E80700162339461098ADF8C830CDF8C1
:104BC000C4B00FF0F3F9109950460BF099FDD322C1
:104BD00040F277211198FFF7AFFB11994046C4F8D6
:104BE0000C68A4F810580EF039FF04F6180398E882
:104BF000070083E80700152339461198ADF8C8303F
:104C0000CDF8C4B00FF0D2F9119950460BF078FDF1
:104C10004FF4AB7254211298FFF78EFB1299404665
:104C2000C4F85468A4F858580EF018FF04F5066349
:104C300098E8070083E80700142339461298ADF876
:104C4000C830CDF8C4B00FF0B1F9129950460BF04E
:104C500057FD4FF4AB7240F209111398FFF76CFB4C
:104C600013994046C4F89C68A4F8A0580EF0F6FECC
:104C700004F6A80398E8070083E8070013233946E1
:104C80001398ADF8C830CDF8C4B00FF08FF9139970
:104C900050460BF035FD512269211498FFF74CFB6B
:104CA00014994046C4F8E468A4F8E8580EF0D6FE1B
:104CB00004F50F6398E8070083E8070017233946D7
:104CC0001498ADF8C830CDF8C4B00FF06FF914994E
:104CD00050460BF015FDD32270211598FFF72CFBE1
:104CE00015994046C4F82C69A4F830590EF0B6FE68
:104CF00004F6381398E8070083E8070002233946D2
:104D00001598ADF8C830CDF8C4B00FF04FF915992B
:104D100050460BF0F5FC5B2240F259111698FFF754
:104D20000BFB3846C4F87469A4F87859FFF748FBC0
:104D300004F5186397E8070083E8070004F6344396
:104D40000393D9F800302BB9064B6021064A074877
:104D500020F096FB064B1B88112B0FD8054B6121C9
:104D6000014AF4E77885020888860208F58502087A
:104D7000888E02244A860208848E0224D44B112194
:104D8000186800F049FC0A210346D24A039815F03E
:104D900017F9039A1698C4F88C290FF0E7F8122334
:104DA00039461698ADF8C830CDF8C4B00FF0FEF80B
:104DB000169950460BF0A4FC5B224FF4A47117988F
:104DC000FFF7BAFA40461799C4F8C069A4F8C45965
:104DD0000EF044FE04F6CC1398E8070083E80700C1
:104DE0004FF010023946179804F64848ADF8C8202D
:104DF000CDF8C4B00FF0DAF81799504684F8B559D9
:104E00000BF07EFC5C2240F2FF111898FFF794FA39
:104E10003846C4F8086AA4F80C5AFFF7D1FA04F629
:104E2000142397E8070083E80700D9F80030002B27
:104E30008AD0A94A13880E2B90D9A54B0E21186849
:104E400000F0EAFBA34A03460A21404615F0B8F8F1
:104E50001898C4F8208A04F65C480FF087F80F23EE
:104E600039461898ADF8C830CDF8C4B00FF09EF8A8
:104E7000189950460BF044FCDD2240F23721199876
:104E8000FFF75AFA3846C4F8546AA4F8585AFFF79C
:104E900097FA04F5266397E8070083E80700D9F836
:104EA0000030002B3FF450AF8B4A13880C2B7FF659
:104EB00055AF874B0C21186800F0AEFB854A0346BE
:104EC0000A21404615F07CF81998C4F86C8A04F55C
:104ED00047680FF04BF80D2339461998ADF8C830E4
:104EE000CDF8C4B00FF062F8199950460BF008FCE9
:104EF0004FF4B57210211A98FFF71EFA3846C4F81D
:104F0000A06AA4F8A45AFFF75BFA04F6AC2397E86A
:104F1000070083E80700D9F80030002B3FF414AFF6
:104F20006D4A13880A2B7FF619AF694B0A2118685E
:104F300000F072FB674A03460A21404615F040F82C
:104F40001A98C4F8B88A0FF011F80B2339461A984A
:104F5000ADF8C830CDF8C4B00FF028F81A99504613
:104F60000BF0CEFB4FF4B572D8211B98FFF7E4F994
:104F7000A4F8F05A3846C4F8EC6AFFF721FA04F6B0
:104F8000F82304F6844597E8070083E80700D9F87A
:104F90000030002B3FF4D8AE4F4A1388082B7FF621
:104FA000DDAE4B4B08214D4E4FF0FF3818680027FF
:104FB00000F032FB474A03460A212846DFF82091D9
:104FC00014F0FEFF1B98C4F8045B31AD0EF0CEFF69
:104FD000092329461B98ADF8C83004F6984B319642
:104FE0000EF0E4FF1B9950460BF08AFB742203215C
:104FF0001C98FFF7A1F92846C4F8388BA4F83C7B2D
:10500000FFF7DEF904F6443395E8070083E807006C
:10501000D9F80030002B3FF497AE2F4A1388062BA7
:105020007FF69CAE2A4B0621186800F0F5FA294A53
:1050300003460A21584614F0C3FF1C98C4F850BB1D
:1050400004F6AC4B0EF092FF072329461C98ADF8EE
:10505000C83031960EF0AAFF1C9950460BF050FB59
:10506000F02203211D98FFF767F92846C4F8848BC6
:10507000A4F8887BFFF7A4F904F5396395E80700E5
:1050800083E80700D9F80030002B3FF45DAE124AE8
:105090001388032B7FF662AE0D4B0321186800F0D6
:1050A000BBFA0C4A03460A21584614F089FF1D98A2
:1050B000C4F89CBB0DF1B00B0EF058FF0423294639
:1050C0001D98ADF8C83031960EF070FF0AE000BFB1
:1050D000908E0224D3860208888E02247C810208E6
:1050E000848E02241D9950460BF00AFB0A2240F2DE
:1050F000DF210E98FFF720F90E995846C4F8D08B9F
:10510000A4F8D47B0EF0AAFC0E9901F13C039BE8B5
:10511000070083E80700052329460E98ADF8C8303C
:1051200031960EF043FF0E9950460BF0E9FA0A2231
:1051300040F2B9211E98FFF7FFF8C4F8188C2846F2
:10514000A4F81C7CFFF73CF904F6244304F54C68F2
:1051500095E8070083E80700D9F80030002B3FF4FA
:10516000F3AD124A1388002B3FF4F8AD104B3946CB
:10517000186800F051FA0F4A03460A21404614F01D
:105180001FFF1E98C4F8308C0EF0F0FE0123294654
:105190001E98ADF8C83031960EF008FF50461E99A3
:1051A0000BF0AEFA204635B0BDE8F08F888E0224B1
:1051B000908E0224D38602087047000030B5184D47
:1051C0008FB02C68BFF35B8F14F0010424D1284604
:1051D0001FF0DFFD00B3134B0222134913480A945A
:1051E000CDE90B433F230993114B0893114B0793D0
:1051F0000423CDE905320122CDE9033264235B2289
:1052000000937923CDE90144FEF7C6FF0A4820F058
:1052100055F928461FF0C9FD04480FB030BD00BF46
:10522000B8EC00249C87020800EC0D08BCEC0024BC
:1052300010000E0828000E08B95100087047000041
:1052400030B5184D8FB02C68BFF35B8F14F001049C
:1052500024D128461FF09DFD00B3134B07221349AC
:1052600013480A94CDE90B433F230993114B08934C
:10527000114B07930423CDE905230122CDE9033225
:10528000C8235B220093F223CDE90144FEF784FF9B
:105290000A4820F013F928461FF087FD04480FB094
:1052A00030BD00BFE8EC00249C870208FCF00D082C
:1052B000ECEC002414000E082C000E083D520008EF
:1052C0007047000030B5174D8FB02C68BFF35B8F6F
:1052D00014F0010423D128461FF05BFDF8B1124BF6
:1052E0005B22124912480A940194CDE90B433F23F3
:1052F0000993104B0893104B07930123CDE9053315
:1053000004930423CDE90243142300931823FEF7EA
:1053100043FF0A4820F0D2F828461FF046FD044813
:105320000FB030BD18ED00249C870208F8F50D0879
:105330001CED002418000E0830000E08C1520008B1
:105340007047000030B5184D8FB02C68BFF35B8FED
:1053500014F0010425D128461FF01BFD08B3134BA0
:105360000222012112480A94CDE90B433F230993FD
:10537000104B0893104B07930323CDE90532042308
:105380005B22CDE9033142230C4900935023CDE940
:105390000144FEF701FF0A4820F090F828461FF06C
:1053A00004FD03480FB030BD48ED00249C8702087F
:1053B0004CED00241C000E0834000E08F4FA0D0811
:1053C000415300087047000030B5164D8FB02C686F
:1053D000BFF35B8F14F0010420D128461FF0D9FCE5
:1053E000E0B13F23012210490993104B1048089364
:1053F000104B0A940594CDE906430423CDE903320A
:105400000A23CDE90B440093CDE90144FEF7C4FE25
:10541000094820F053F828461FF0C7FC04480FB095
:1054200030BD00BF78ED0024F0FF0D0820000E080D
:105430007CED002438000E08C553000870470000BA
:1054400030B5164D8FB02C68BFF35B8F14F001049C
:1054500020D128461FF09DFCE0B13F2301221049D6
:105460000993104B10480893104B0A940594CDE90A
:1054700006430423CDE903322823CDE90B440093EE
:10548000CDE90144FEF788FE094820F017F82846C8
:105490001FF08BFC04480FB030BD00BFA8ED002406
:1054A00000000E0824000E08ACED00243C000E089D
:1054B0003D54000800207047002070470EB403B52B
:1054C00003AB002153F8042B019312F003F902B04F
:1054D0005DF804EB03B070470CB407B504AB53F8A8
:1054E000042B019312F0F6F803B05DF804EB02B060
:1054F00070470000436C10B5044673B3038F2BB99B
:10550000184BC521184A19481FF0BAFFC38E00EB8B
:1055100043035B8C0BB313F0ABFF238F012B03D83A
:10552000134BCB21134AEEE7E28E40F63F10531C9B
:105530009BB2092B194688BFA3F10A0104EB410174
:10554000498C814209D10A2B04EB420228BF002377
:10555000508C04EB4303588451842046BDE810402E
:1055600013F088BEF28B0208FB8B0208A68C02089F
:10557000FE8C02080C8D020813F045BE10B586B0F3
:1055800002AC84E806001A460AAB21460593019353
:10559000099B0093089B10F0EDFC06B010BD0000C5
:1055A00038B518BB124B13481C681349B4B12268B4
:1055B00022440260626822440A60A26814440F4BCD
:1055C00000221A8000F038F8054600F033F80C4B42
:1055D0001C600C4B1D600C4B188007E00B4B0360EC
:1055E0000B4B0B600B4B1C68002CE8D138BD00BF87
:1055F000E4ED0024DCED0024D8ED0024E0ED0024EF
:10560000848E02248C8E0224888E022464000090F2
:1056100000000090F0000090044B1B6853F821003C
:10562000034B1B6803EB4000704700BFD8ED00241C
:10563000DCED00241920704700487047E8ED002495
:1056400010B50A4CFFF73EFE2060FFF7F9FE6060E0
:10565000FFF7BAFEA060FFF7F3FDE060FFF7AEFDD5
:105660002061FFF76FFE606110BD00BFE8ED002410
:1056700010B5002404600C6014601C6010BD7047FD
:1056800010B504464FF4AE711FF081FB204610BDEB
:1056900010B50446D0F8580100F016F82046BDE8D1
:1056A000104011F04BB9000010B50446FEF7FEFCA7
:1056B000014B2046236010BDE88D020832210022F4
:1056C000C0E90012704700002DE9F041044671481E
:1056D00002F0EAFD0A216F4802F054F96D4802F029
:1056E000DFF905466B4802F092FE40F22D10684348
:1056F00044BF00F57F40FF300114606803682160FB
:105700001B699847644802F0CFFD0A21624802F005
:1057100039F9614802F0C4F905465F4802F077FEA6
:1057200040F22D1160686943036848BF01F57F416D
:105730005B6948BFFF3109149847584802F0B4FD2F
:105740000A21564802F01EF9544802F0A9F905460C
:10575000524802F05CFE40F6E443606803FB05F14A
:105760004FF6FF734E4DB1FBF3F11923C1F53E71B6
:1057700091FBF3F1036819319B6A9847042149486A
:1057800008F0F2FB0421474808F08EF9042145484F
:1057900008F076FC6068002103685B6A9847402146
:1057A000414804F055F870B9404E02F0BBF8336838
:1057B000C01AA02807D92B685A1C062B18BF2A60CC
:1057C00002F0B0F830600821374804F041F868B9B9
:1057D000374E02F0A7F83368C01AA02806D92B6804
:1057E000013B18BF2B6002F09DF8306060682968AB
:1057F0000368304E9B6898474FF400512E4804F0E0
:1058000027F80128054635D12C4F02F08BF83B686C
:10581000C01A322803D9357002F084F83860606805
:1058200031780368264EDB689847DFF8A08002F0E5
:1058300079F8244B054610211F6818601A4804F0B7
:1058400007F8D0B901233060606888F800301E4B3B
:10585000196803689B69984798F800301BB1336852
:10586000ED1B1D443560606831680368BDE8F04198
:10587000DB69184700233370D1E720210A4803F081
:10588000E7FF0028E8D188F800000F4B32681A6063
:10589000E2E700BF48070024AC070024E406002428
:1058A00038000024CC030024002802581CEE0024F9
:1058B00018EE002404EE00240008025814EE002420
:1058C00010EE002400EE002408EE00240CEE00246C
:1058D0007047043870477047C0680368DB6A184730
:1058E000A0F10400FFF7F8BFC06803681B6B1847FE
:1058F000A0F10400FFF7F8BFC06803685B6B1847AE
:10590000A0F10400FFF7F8BFC06803681B6C1847DC
:10591000A0F10400FFF7F8BFC0680368DB6B18470D
:10592000A0F10400FFF7F8BFC06803685B6C18477C
:10593000A0F10400FFF7F8BFC06803689B6C18472C
:10594000A0F10400FFF7F8BFC06803689B6B18471D
:10595000A0F10400FFF7F8BFC0680368DB6C1847CC
:10596000A0F10400FFF7F8BF10B5044610211FF0A6
:105970000EFA204610BDA0F10400F5E70022C16038
:105980008260024A02603C32426070473C8E0208EC
:10599000704700000B46034A0A2100F54C6014F0E2
:1059A0000FBB00BFAC8E0208034B10B5044603606A
:1059B000FEF76EFC204610BDC48E020810B50446EA
:1059C000FFF7F2FF43F6B43120461FF0E0F920461E
:1059D00010BD000010B50446FEF746FD014B204601
:1059E000236010BDC48E02083B2830B508DD59285D
:1059F0000DDD6D284FF0FF000BDD0024002502E0D7
:105A0000FF20FF240546087014701D7030BD002073
:105A1000F7E7A524F2E7FEF732BC000010B5044614
:105A20000B46064A0A2100F6344014F0C9FA04F67F
:105A30004410BDE8104011F078BF00BFAC8E0208E2
:105A400038B581F0010304460D4600F6441080F895
:105A5000253011F06AFF04F5196084F8B559BDE8E6
:105A6000384011F062BF000037B50D4604460DF115
:105A700007030DF106020DF105012846FFF7B4FFFB
:105A80009DF806209DF805300A21120204F54760B2
:105A900042EA03429DF807301A432B4642F07F4208
:105AA000C4F8A02A044A14F08BFA04F5276003B066
:105AB000BDE8304011F039BFAC8E020837B50D4655
:105AC00004460DF107030DF106020DF1050128460C
:105AD000FFF78AFF9DF806209DF805300A21120283
